:100000000C942A000C9447000C9447000C94470071
:100010000C9447000C9447000C94D1010C940F02EF
:100020000C9447000C9447000C9447000C94470034
:100030000C9447000C9447000C9447000C94470024
:100040000C9447000C9447000C9447000C94470014
:100050000C94470011241FBECFE5D4E0DEBFCDBF16
:1000600010E0A0E6B0E0E4E1F5E002C005900D92FA
:10007000A03EB107D9F711E0A0EEB0E001C01D929B
:10008000A130B107E1F70E948C010C9488020C9416
:10009000000089B990BD86E880BD88E18AB90895DD
:1000A0005F9BFECF8CB108955D9BFECF8CB9089508
:1000B0005D9BFECF8DE08CB95D9BFECF8AE08CB955
:1000C0000895FC0104C05D9BFECF31968CB9808100
:1000D0008823C9F70E945800089580538A3028F079
:1000E00080E690E00E94610080E00895FF920F9307
:1000F0001F935F9BFECF8CB15D9BFECF8CB90E949E
:100100006D00F82E5F9BFECF8CB15D9BFECF8CB94E
:100110000E946D00082F5F9BFECF8CB15D9BFECFD0
:100120008CB90E946D00182F5F9BFECF8CB15D9B38
:10013000FECF8CB90E946D0028EE33E0F29E202D98
:10014000112444E6049FA0011124240F280F8AE003
:10015000189FC0011124820F1F910F91FF900895E5
:1001600089E08EBD8AE699E09BBD8ABD8CED95E065
:1001700099BD88BD88B599B50A969DBD8CBD88E1AD
:1001800089BF089581B38C6F81BB8FEF84BB0895C5
:1001900080E090E064E873E00E944B0281E090E030
:1001A0006CED75E00E944B0282E090E068E978E037
:1001B0000E944B0283E090E068E978E00E944B02E5
:1001C00084E090E06CED75E00E944B0285E090E0E9
:1001D00068E978E00E944B0286E090E06CED75E003
:1001E0000E944B0287E090E064E873E00E944B02BB
:1001F000089580E090E064E873E00E944B0281E0A3
:1002000090E064E873E00E944B0282E090E064E8D2
:1002100073E00E944B0283E090E064E873E00E9488
:100220004B0284E090E064E873E00E944B0285E0BA
:1002300090E064E873E00E944B0286E090E064E89E
:1002400073E00E944B0287E090E064E873E00E9454
:100250004B02089580E090E06CED75E00E944B0247
:1002600081E090E06CED75E00E944B0282E090E04E
:100270006CED75E00E944B0283E090E06CED75E060
:100280000E944B0284E090E06CED75E00E944B020E
:1002900085E090E06CED75E00E944B0286E090E016
:1002A0006CED75E00E944B0287E090E06CED75E02C
:1002B0000E944B02089580E090E068E077E00E94A1
:1002C0004B0281E090E068E077E00E944B0282E020
:1002D00090E068E077E00E944B0283E090E068E005
:1002E00077E00E944B0284E090E068E077E00E94B3
:1002F0004B0285E090E068E077E00E944B0286E0E8
:1003000090E068E077E00E944B0287E090E068E0D0
:1003100077E00E944B020895CF93DF93A29A89E180
:1003200090E00E9449000E945B0181B38C6F81BB09
:100330008FEF84BB0E94B000789486E790E00E9423
:1003400061000E94580088E890E00E9461000E94CD
:100350005800C8EAD1E6CE010197F1F78BEB90E0A7
:100360000E9461000E9458000E945000C09719F43A
:100370000E942A0110C08130910519F40E94F900F1
:100380000AC08230910519F40E94C80004C0039786
:1003900011F40E945B01CE010197F1F70E94580011
:1003A000DACF1F920F920FB60F9211242F933F9323
:1003B0008F939F93EF93FF938091E000843068F4D4
:1003C00085B39091E00021E030E002C0220F331F9E
:1003D0009A95E2F7822B85BB0CC082B39091E00026
:1003E00021E030E002C0220F331F9A95E2F7822B02
:1003F00082BBE091E000F0E0EE0FFF1FEF51FF4FF6
:100400008081918199BD88BDFF91EF919F918F91DE
:100410003F912F910F900FBE0F901F9018951F9234
:100420000F920FB60F9211242F933F938F939F93A8
:100430008091E000843070F435B32091E00081E0D9
:1004400090E002C0880F991F2A95E2F780958323D8
:1004500085BB0DC032B32091E00081E090E002C086
:10046000880F991F2A95E2F78095832382BB80919C
:10047000E0008F5F8093E0008091E000883011F40D
:100480001092E0009F918F913F912F910F900FBE9E
:100490000F901F90189590E0880F991FDC01AF51C5
:1004A000BF4F2D913C911197FC01EF50FF4F3183CD
:1004B0002083808191816817790749F1808191813A
:1004C0008617970750F01BC0808191810A9691830F
:1004D0008083C9010197F1F703C0FD0124EF31E0EA
:1004E000808191818617970778F3089580819181A3
:1004F0000A9791838083C9010197F1F703C0FD0139
:1005000024EF31E0808191816817790778F30895AD
:04051000F894FFCF8D
:100514002074686973206973206E6F742061206E83
:100524006F6D6265720020202068656C6C6F2077A7
:100534006F726C642020200020205468697320703E
:10054400726F6772616D6D6520697320666F7220CA
:10055400636F6E74726F6C206F66207468652071AF
:1005640075616472657065642020002020646F6E7C
:100574006E657220706F736972696F6E20656E7438
:10058400726520363030202D203234303020200067
:00000001FF
