:100000000C942A000C9447000C9447000C94470071
:100010000C9447000C9447000C94C2000C9402010D
:100020000C9447000C9447000C9447000C94470034
:100030000C9447000C9447000C9447000C94470024
:100040000C9447000C9447000C9447000C94470014
:100050000C94470011241FBECFE5D4E0DEBFCDBF16
:1000600011E0A0E6B0E0E4E5FEE002C005900D92EC
:10007000A83DB107D9F711E0A8EDB1E001C01D928C
:10008000AA3FB107E1F70E948E000C9428070C9458
:10009000000089B990BD86E880BD88E18AB90895DD
:1000A0005F9BFECF8CB108955D9BFECF8CB9089508
:1000B0005D9BFECF8DE08CB95D9BFECF8AE08CB955
:1000C0000895FC0104C05D9BFECF31968CB9808100
:1000D0008823C9F70E945800089589E08EBD8AEDF3
:1000E00097E09BBD8ABD8CED95E099BD88BD88B534
:1000F00099B50A969DBD8CBD88E189BF089583B7E7
:10010000836083BF12BE19BE089581B38C6F81BB1B
:100110008FEF84BBC2988EEF8ABB089589E190E08F
:100120000E9449000E94850083B7836083BF12BE8E
:1001300019BE0E946D0078940E947A0180E690E0DA
:100140000E9461000E94580087E890E00E946100D0
:100150000E945800C8990FC0B299FECF12BEB29B40
:10016000FECF82B78E31B0F30E941603892F90E044
:100170000E946503EFCF0E9450008093D9010E9436
:100180009806E8CF1F920F920FB60F9211242F936B
:100190003F938F939F93EF93FF938091D801823089
:1001A00068F485B39091D80121E030E002C0220FBD
:1001B000331F9A95E2F7822B85BB0CC082B39091D6
:1001C000D80121E030E002C0220F331F9A95E2F7F8
:1001D000822B82BBE091D801F0E0EE0FFF1FE652C8
:1001E000FE4F8081918199BD88BD1DBC1CBCFF91D3
:1001F000EF919F918F913F912F910F900FBE0F9094
:100200001F9018951F920F920FB60F9211242F93E3
:100210003F938F939F938091D801823070F435B3D0
:100220002091D80181E090E002C0880F991F2A95A3
:10023000E2F78095832385BB0DC032B32091D801AE
:1002400081E090E002C0880F991F2A95E2F780951F
:10025000832382BB8091D8018F5F8093D8018091E6
:10026000D801883011F41092D8019F918F913F915D
:100270002F910F900FBE0F901F901895880F991F08
:10028000DC01A652BE4F2D913C911197FC01E65125
:10029000FE4F31832083808191816817790749F16E
:1002A000808191818617970750F01BC080819181D2
:1002B0000A9691838083C9010197F1F703C0FD017C
:1002C00020ED37E0808191818617970778F30895B4
:1002D000808191810A9791838083C9010197F1F709
:1002E00003C0FD0120ED37E0808191816817790717
:1002F00078F308958CED95E09093DB018093DA011B
:100300009093DD018093DC019093DF018093DE0107
:100310009093E1018093E0019093E3018093E201E7
:100320009093E5018093E4019093E7018093E601C7
:100330009093E9018093E801089580ED97E0909310
:10034000DB018093DA012CED35E03093DD01209361
:10035000DC019093DF018093DE013093E101209373
:10036000E00188EE93E09093E3018093E201309303
:10037000E5012093E4019093E7018093E601309337
:10038000E9012093E80108958CED95E09093DB015D
:100390008093DA0120EB34E03093DD012093DC011F
:1003A0009093DF018093DE013093E1012093E0011F
:1003B0009093E3018093E20128E037E03093E50178
:1003C0002093E4019093E7018093E6013093E901E3
:1003D0002093E80108958CED95E09093DB018093E4
:1003E000DA0128E037E03093DD012093DC019093BF
:1003F000DF018093DE013093E1012093E0019093CF
:10040000E3018093E20120EB34E03093E501209397
:10041000E4019093E7018093E6013093E901209392
:10042000E80108958CED95E09093DB018093DA016B
:1004300048E057E05093DD014093DC019093DF01E9
:100440008093DE0120EB34E03093E1012093E00162
:100450009093E3018093E2013093E5012093E4015E
:100460009093E7018093E6015093E9014093E801FE
:1004700008954CED55E05093DB014093DA0120EBF9
:1004800034E03093DD012093DC015093DF01409391
:10049000DE0188E097E09093E1018093E0013093E2
:1004A000E3012093E2013093E5012093E4015093AE
:1004B000E7014093E6013093E9012093E8010895B4
:1004C00080EB94E09093E3018093E20188E097E071
:1004D0009093E5018093E40180E197E229E130E027
:1004E000F9013197F1F70197D9F788E097E09093F8
:1004F000E3018093E20180EB94E09093E501809327
:10050000E40180E197E229E130E0F9013197F1F768
:100510000197D9F780EB94E09093E3018093E20197
:1005200080E197E229E130E0F9013197F1F7019795
:10053000D9F788E097E09093E3018093E201089572
:1005400028E037E03093DF012093DE0180EB94E078
:100550009093E3018093E2019093E1018093E001A5
:100560003093E5012093E40180E197E229E130E056
:10057000F9013197F1F70197D9F720EB34E0309387
:10058000DF012093DE0188E097E09093E301809300
:10059000E2019093E1018093E0013093E501209323
:1005A000E40180E197E229E130E0F9013197F1F7C8
:1005B0000197D9F7089580EB94E09093DD01809343
:1005C000DC019093E1018093E00188E097E0909353
:1005D000E5018093E4019093E9018093E80180E1D3
:1005E00097E229E130E0F9013197F1F70197D9F766
:1005F00088E097E09093DD018093DC019093E10126
:100600008093E00180EB94E09093E5018093E40116
:100610009093E9018093E80180E197E229E130E0DD
:10062000F9013197F1F70197D9F7089560E020E0DB
:1006300030E041E050E0B299FECF12BEB29BFECF57
:1006400082B78F3048F0CA01022E02C0880F991F6E
:100650000A94E2F7682B09C0CA01022E02C0880F73
:10066000991F0A94E2F7809568232F5F3F4F273048
:10067000310509F720E040E050E0E1E0F0E0B29918
:10068000FECF12BEB29BFECF82B78F3048F0CF01B3
:10069000042E02C0880F991F0A94E2F7282B09C084
:1006A000CF01042E02C0880F991F0A94E2F78095AB
:1006B00028234F5F5F4F4530510509F730E0962FF3
:1006C00080E0282B392BC90108951F93182F89EB3F
:1006D00090E00E9461000E9458001B3181F11C31A2
:1006E00070F4183191F1193128F4153101F11731F5
:1006F000B9F521C0193199F01A3191F522C01D3296
:10070000C1F01E3228F41C31F1F0133249F51FC03C
:10071000163599F01A35F9F0173411F51AC0809191
:10072000D901843311F483E317C084E315C081E356
:1007300013C089E311C086E30FC087E30DC082E4D4
:100740000BC088E309C083E407C084E405C086E4E5
:1007500003C085E401C087E48093D9010E94980614
:100760001F91089580E090E068E077E00E943E01EC
:1007700082E090E068E077E00E943E0180E090E057
:100780006CED75E00E943E0184E090E060EB74E067
:100790000E943E0182E090E06CED75E00E943E0117
:1007A00086E090E060EB74E00E943E0184E090E01F
:1007B0006CED75E00E943E0180E090E068E077E03B
:1007C0000E943E0186E090E06CED75E00E943E01E3
:1007D00008950F931F938C0186E090E060EB74E026
:1007E0000E943E0187E090E0B8010E943E0186E051
:1007F00090E06CED75E00E943E011F910F9108950D
:100800000F931F938C0184E090E060EB74E00E94F2
:100810003E0185E090E0B8010E943E0184E090E056
:100820006CED75E00E943E011F910F9108950F93AA
:100830001F938C0182E090E068E077E00E943E0127
:1008400083E090E0B8010E943E0182E090E06CED10
:1008500075E00E943E011F910F9108950F931F9321
:100860008C0180E090E068E077E00E943E0181E04A
:1008700090E0B8010E943E0180E090E06CED75E0F0
:100880000E943E011F910F91089580E090E060E486
:1008900076E00E943E0181E090E060E476E00E9414
:1008A0003E0182E090E060E476E00E943E0183E059
:1008B00090E060E476E00E943E0184E090E060E435
:1008C00076E00E943E0185E090E060E476E00E94E0
:1008D0003E0186E090E060E476E00E943E0187E021
:1008E00090E060E476E00E943E0108950F931F932C
:1008F0008C0183E090E0B8010E943E0187E090E027
:10090000B8010E943E011F910F9108950F931F930C
:100910008C0181E090E0B8010E943E0185E090E00A
:10092000B8010E943E011F910F9108950F931F93EC
:100930008C0184E090E0B8010E943E0186E090E0E6
:10094000B8010E943E011F910F9108950F931F93CC
:100950008C0180E090E0B8010E943E0182E090E0CE
:10096000B8010E943E011F910F91089580ED97E01C
:100970000E94A60480ED97E00E94960488EE93E022
:100980000E94860480ED97E00E947604089580ED31
:1009900097E00E94A60488EE93E00E94960480EB04
:1009A00094E00E94860488E097E00E94760408950F
:1009B00080ED97E00E94A60488EE93E00E949604E2
:1009C0008CED95E00E9486048CED95E00E94760403
:1009D000089588EE93E00E94A60480ED97E00E94BF
:1009E00096048CED95E00E9486048CED95E00E94C3
:1009F0007604089580ED97E00E94A60488EE93E0C7
:100A00000E94960481E090E060ED77E00E943E0154
:100A100083E090E060ED77E00E943E0185E090E0A9
:100A200068EE73E00E943E0187E090E068EE73E0BC
:100A30000E943E0182E090E068EE73E00E943E0179
:100A400084E090E060ED77E00E943E0182E090E07B
:100A500060ED77E00E943E0182E090E068EE73E096
:100A60000E943E0184E090E068EE73E00E943E0147
:100A700084E090E060ED77E00E943E0180E090E04D
:100A80006CED75E00E943E0186E090E06CED75E053
:100A90000E943E010E94A0020E94A0020E94A002A9
:100AA0000E94A0020E94A00280E090E060ED77E04A
:100AB0000E943E0186E090E068EE73E00E943E01F5
:100AC0000E947A0108950F931F938C010E947A016E
:100AD000C8010E942E04C8010E941704C8010E9488
:100AE0000004C8010E94E9030E947A011F910F913E
:100AF000089580ED97E00E94A60488EE93E00E949E
:100B0000960481E090E060ED77E00E943E0183E092
:100B100090E060ED77E00E943E0185E090E068EEB5
:100B200073E00E943E0187E090E068EE73E00E946F
:100B30003E0182E090E068EE73E00E943E0184E0B6
:100B400090E060ED77E00E943E0182E090E060ED91
:100B500077E00E943E0182E090E068EE73E00E9440
:100B60003E0184E090E068EE73E00E943E0184E084
:100B700090E060ED77E00E943E0180E090E06CED57
:100B800075E00E943E0186E090E06CED75E00E9409
:100B90003E0182E090E068EE73E00E943E0184E056
:100BA00090E060ED77E00E943E0182E090E060ED31
:100BB00077E00E943E0182E090E068EE73E00E94E0
:100BC0003E0184E090E068EE73E00E943E0184E024
:100BD00090E060ED77E00E943E0182E090E068EEF8
:100BE00073E00E943E0184E090E060ED77E00E94B7
:100BF0003E0182E090E060ED77E00E943E0182E0FD
:100C000090E068EE73E00E943E0184E090E068EEC0
:100C100073E00E943E0184E090E060ED77E00E9486
:100C20003E0180E090E060ED77E00E943E0186E0CA
:100C300090E068EE73E00E943E010E947A01089500
:100C40000E94D80480E090E060ED77E00E943E01D1
:100C50000E94DB020E94DB020E94DB020E947A01FA
:100C600008950E947A0180E090E060ED77E00E94B4
:100C70003E010E9460020E9460020E9460020E9487
:100C800060020E947A0108950E94390280EB94E08C
:100C90000E94170488E097E00E94E90388E097E04B
:100CA0000E942E0480EB94E00E9400040E9439020E
:100CB00008950E94120280EB94E00E94000480EBF1
:100CC00094E00E942E0488E097E00E94170480EBD5
:100CD00094E00E94E9030E94120208950E94EB0131
:100CE00088E097E00E94E90380EB94E00E941704FB
:100CF00080EB94E00E942E0488E097E00E940004BC
:100D00000E94EB0108950E94C40188E097E00E94D0
:100D1000170480EB94E00E94E90380EB94E00E94CA
:100D2000000488E097E00E942E040E94C401089508
:100D30008091D9018BBB883309F452C0893388F480
:100D40008433D1F1853340F4823361F1833378F514
:100D5000813309F076C021C08633C1F18733D8F5DD
:100D600030C0833409F452C0843450F4813409F41F
:100D700041C0823408F043C0893309F062C035C0F5
:100D8000853409F44FC0853408F447C0863409F42B
:100D90004EC0873409F055C04FC00E94E90485ED6C
:100DA00090E051C00E94D80481EE90E04CC00E94B7
:100DB000C70480EF90E047C00E947A018EEF90E078
:100DC00042C00E949D018CE091E03DC00E94590606
:100DD00088E191E038C00E94440687E291E033C088
:100DE0000E94790587E391E02EC00E94830688E483
:100DF00091E029C00E946E068AE591E024C088E057
:100E000097E00E9463058DE691E01DC080EB94E0C1
:100E10000E9463058BE791E016C00E94310689E8C5
:100E200091E011C00E94B20382E991E00CC00E94DF
:100E3000FA048CE991E007C00E94200680EB91E063
:100E400002C088EB91E00E9461000E945800089562
:040E5000F894FFCF44
:100E54002020202A2A2A2A2A2A2A2A2A2A2A686593
:100E64006C6C6F2068756D616E2A2A2A2A2A2A2AD8
:100E74002A2A2A2A202000202054686973206973B2
:100E84002074686520717561647261706F64652097
:100E9400726F626F742077686174277320796F753D
:100EA40072206F726465722000202A2A2A2A2A2A54
:100EB40053454E44494E4720544F204D41494E20FE
:100EC4002A2A2A200020207374616E642075702001
:100ED400002020736574696E6720646F776E20004C
:100EE4002020706F736974696F6E20332000202096
:100EF4007374616E642066617374200020207365CE
:100F04007420666173742000206D6F76696E6720AB
:100F14006C656674202000206D6F76696E672072A0
:100F240069676874202000202067616E676E616DB8
:100F3400207374796C65200020206D6F76696E676C
:100F440020666F7277617264200020206D6F76696D
:100F54006E67206261636B77617264200020207386
:100F64007475726E206C656674200020207475722E
:100F74006E2072696768742000202068656C6C6F4D
:100F840020002020686970686F702000202067614D
:100F94006E67206E616D207374796C652032200059
:100FA40020207377696D2000206572726575723A2E
:100FB40020696E737472756374696F6E206E6F74DA
:080FC40020666F756E642000C9
:00000001FF
